:10000000BEC30000EDC30000EBC30000E9C3000065
:10001000E7C30000E5C30000E3C30000E1C3000044
:10002000DFC30000DDC30000DBC30000D9C3000054
:10003000D7C30000D5C30000D3C300000C946022D6
:10004000CFC30000CDC30000CBC30000C9C3000074
:10005000C7C30000C5C30000C3C300000C94682DD3
:10006000BFC300000C94B4300C94EA30B9C3000054
:10007000B7C30000B5C30000B3C30000B1C30000A4
:10008000AFC30000ADC30000ABC30000A9C30000B4
:10009000A7C30000A5C30000A3C300000C941D2447
:1000A0009FC300009DC300009BC3000099C30000D4
:1000B00097C3000095C3000093C3000091C30000E4
:1000C0008FC300008DC300008BC3000089C30000F4
:1000D00087C3000085C3000083C3000081C3000004
:1000E0007FC300009A2E9D2E8C2E902E962ED42EFD
:1000F000A12EA52EAB2EAF2EB32EB92EBD2EC12E06
:10010000D42EC72ECB2ECF2E084AD73B3BCE016E26
:1001100084BCBFFDC12F3D6C74319ABD56833DDA5E
:100120003D00C77F11BED9E4BB4C3E916BAAAABE6D
:10013000000000803F05A84CCDB2D44EB93836A996
:10014000020C50B9918688083CA6AAAA2ABE0000D3
:1001500000803F0664EC1B3C04BC163E3BE5B93C0A
:10016000C93C37C29E5A3D660498083EEA69AAAA6D
:100170003E000000803F00000000003E5B4F5B3E01
:100180003E6B4F6B3E1C3E7C3E1C183C7E3C181C5C
:10019000577D571C1C5E7F5E1C00183C1800FFE753
:1001A000C3E7FF0018241800FFE7DBE7FF30483AF9
:1001B000060E2629792926407F050507407F05255B
:1001C0003F5A3CE73C5A7F3E1C1C08081C1C3E7FE3
:1001D00014227F22145F5F005F5F06097F017F00AA
:1001E0006689956A606060606094A2FFA2940804CA
:1001F0007E040810207E201008082A1C08081C2AEB
:1002000008081E101010100C1E0C1E0C30383E3842
:1002100030060E3E0E06000000000000005F0000E9
:100220000007000700147F147F14242A7F2A12235A
:100230001308646236495620500008070300001C6A
:100240002241000041221C002A1C7F1C2A08083E73
:100250000808008070300008080808080000606086
:100260000020100804023E5149453E00427F4000F4
:1002700072494949462141494D331814127F1027CC
:10028000454545393C4A494931412111090736491B
:10029000494936464949291E0000140000004034EF
:1002A00000000008142241141414141400412214F4
:1002B0000802015909063E415D594E7C1211127C1B
:1002C0007F494949363E414141227F4141413E7F7C
:1002D000494949417F090909013E414151737F085C
:1002E00008087F00417F41002040413F017F081402
:1002F00022417F404040407F021C027F7F04081063
:100300007F3E4141413E7F090909063E4151215E40
:100310007F09192946264949493203017F01033FD4
:100320004040403F1F2040201F3F4038403F631463
:1003300008146303047804036159494D43007F4165
:1003400041410204081020004141417F04020102A2
:1003500004404040404000030708002054547840C7
:100360007F284444383844444428384444287F385B
:100370005454541800087E090218A4A49C787F08DD
:1003800004047800447D40002040403D007F102858
:10039000440000417F40007C047804787C08040419
:1003A000783844444438FC1824241818242418FCB1
:1003B0007C08040408485454542404043F44243C56
:1003C0004040207C1C2040201C3C4030403C4428C5
:1003D0001028444C9090907C4464544C440008365F
:1003E00041000000770000004136080002010204CD
:1003F000023C2623263C1EA1A161123A4040207AED
:100400003854545559215555794122545478422134
:100410005554784020545579400C1E52721239556B
:100420005555593954545459395554545800004568
:100430007C410002457D420001457C407D12111245
:100440007DF0282528F07C545545002054547C54D8
:100450007C0A097F4932494949323A4444443A3294
:100460004A4848303A4141217A3A42402078009D3A
:10047000A0A07D3D4242423D3D4040403D3C24FFE6
:100480002424487E4943662B2FFC2F2BFF0929F695
:1004900020C0887E090320545479410000447D41E6
:1004A0003048484A32384040227A007A0A0A727D3F
:1004B0000D19317D2629292F28262929292630485A
:1004C0004D4020380808080808080808382F10C8C8
:1004D000ACBA2F102834FA00007B000008142A144C
:1004E0002222142A1408AA005500AAAA55AA55AA1D
:1004F000000000FF00101010FF00141414FF001083
:1005000010FF00FF1010F010F0141414FC0014146D
:10051000F700FF0000FF00FF1414F404FC1414178C
:10052000101F10101F101F1414141F00101010F0B3
:10053000000000001F101010101F10101010F010FD
:10054000000000FF101010101010101010FF10000D
:100550000000FF140000FF00FF00001F1017000044
:10056000FC04F414141710171414F404F40000FF1E
:1005700000F714141414141414F700F714141417B7
:100580001410101F101F141414F4141010F010F095
:1005900000001F101F0000001F14000000FC1400CA
:1005A00000F010F01010FF10FF141414FF141010BE
:1005B000101F00000000F010FFFFFFFFFFF0F0F041
:1005C000F0F0FFFFFF0000000000FFFF0F0F0F0F14
:1005D0000F3844443844FC4A4A4A347E0202060634
:1005E000027E027E0263554941633844443C044024
:1005F0007E201E2006027E020299A5E7A5991C2AEC
:10060000492A1C4C7201724C304A4D4D30304878AA
:100610004830BC625A463D3E494949007E010101CD
:100620007E2A2A2A2A2A44445F444440514A4440AC
:1006300040444A51400000FF0103E080FF000008F1
:10064000086B6B083612362436060F090F060000B9
:1006500018180000001010003040FF0101001F01B9
:10066000011E00191D1712003C3C3C3C000000001C
:100670000000000A0B02090C0D0E0807030401001C
:10068000000000000000000000000000000000006A
:100690000000000000000000000000000012111027
:1006A000000000000000000000000000000000004A
:1006B00000000000000000010210202008081020A7
:1006C00040102040800201020108040201010204DE
:1006D000081020408080402010080402018004029D
:1006E00001804020100804020108040201010204F4
:1006F00008102040800102040810204080050505F4
:1007000005070508080808020202020A0A08080488
:1007100004040401010101010101010303030303B6
:10072000030303040707070C0C0C0C0C0C0C0C0245
:1007300002020206060606060606060B0B0B0B0B4C
:100740000B0B0B00002200250028002B002E00318F
:1007500000340002010000050108010B0100002126
:1007600000240027002A002D003000330001010082
:1007700000040107010A0100A80480231C31112490
:100780001FBECFEFD1E2DEBFCDBF00E00CBF1CE04B
:10079000A0E0B2E0E8E1FFE600E00BBF02C0079096
:1007A0000D92AA3EB107D9F72EE0AAEEBCE001C037
:1007B0001D92A33DB207E1F717E0CEE7D7E000E0D6
:1007C00006C022970109FE010BBF0E947337C8378C
:1007D000D10780E00807A9F70E9460310C948A379E
:1007E0000FCC80915E0D0E945C2E90935D0D8093E6
:1007F0005C0D61EE7BE086E39EE00E94AA31609191
:100800005C0D70915D0D4AE050E086E39EE00C9433
:100810009432CF92DF92EF920F93C0900002D0906B
:1008200001022091040230910502E0900202009141
:10083000030240910602609107028AEE9CE00E944A
:10084000361F68EC70E080E090E00E94D52D21E03A
:100850004CE362E081E39DE00E94F12B81E39DE0A7
:100860000E94772B62E081E39DE00E94212861E0F5
:1008700070E081E39DE00E94272840E050E060E0C6
:1008800070E081E39DE00E941B2867EE7BE081E33E
:100890009DE00E94C43160E081E39DE00E94212838
:1008A00042E150E060E070E081E39DE00E941B289F
:1008B00062EF7BE081E39DE00E94C4314CE150E0B7
:1008C00060E070E081E39DE00E941B286FEF7BE019
:1008D00081E39DE00E94C43146E250E060E070E0B8
:1008E00081E39DE00E941B2862E17CE081E39DE0C2
:1008F0000E94C43140E350E060E070E081E39DE09D
:100900000E941B286FE17CE081E39DE00E94C431DE
:1009100081E39DE00F91EF90DF90CF900C94E82C55
:10092000F89441EF53E064E070E080E090E00E94D2
:10093000F4210E94FF2126E040E051EE60E070E0EB
:1009400086E39EE00E945430789463CF88950895A2
:1009500064E081E39DE00E945F2B8BED9FE0A9E4C2
:10096000B0E48093EA0C9093EB0CA093EC0CB09362
:10097000ED0C85E39AEFAEE8BCE38093EE0C909328
:10098000EF0CA093F00CB093F10C80EE9EE2A5E684
:10099000B2E48093F20C9093F30CA093F40CB09318
:1009A000F50C0895CF92DF92EF92FF926A017B01DE
:1009B00020E030E0A901C701B6010E942D3487FF75
:1009C0000BC020E030E044EB53E4C701B6010E94C5
:1009D000A1336B017C01ECCF20E030E044EB53E429
:1009E000C701B6010E94303618165CF420E030E0F2
:1009F00044EB53E4C701B6010E94A0336B017C01B4
:100A0000EBCFC701B601FF90EF90DF90CF90089534
:100A10004F925F926F927F928F929F92AF92BF920E
:100A2000CF92DF92EF92FF920F931F93CF93DF93BA
:100A3000CDB7DEB76C970FB6F894DEBF0FBECDBF53
:100A40008C01CB01BA0120EB36E643E15AE40E9467
:100A5000A03320E03DEA4EE057E40E9434346B01BD
:100A60007C019B01AC010E943B364B015C0125ECF3
:100A700030EA4CE057E4C701B6010E943B362DE254
:100A800039ED4BE853E40E94A1332B013C0129EFDF
:100A90003BED4EE959E3C501B4010E943B369B0191
:100AA000AC01C301B2010E94A1336D837E838F83A9
:100AB00098872CE73EEF4AEE58E4C701B6010E9442
:100AC0003B3623E937E347E853E40E94A1332B0187
:100AD0003C012BE53CE844E95AE3C501B4010E941E
:100AE0003B369B01AC01C301B2010E94A033698770
:100AF0007A878B879C872DE03FE94CE057E4C7015C
:100B0000B6010E943B3628EE3CE343EB53E40E94DF
:100B1000A1332B013C0122E539E44DE159E3C50144
:100B2000B4010E943B369B01AC01C301B2010E949B
:100B3000A0336D877E878F87988B2BED31E049EE50
:100B400058E4C701B6010E943B3624E63DE044E983
:100B500053E40E94A1332B013C0125EA38E946E128
:100B60005CE3C501B4010E943B369B01AC01C301AB
:100B7000B2010E94A133698B7A8B8B8B9C8B24E60C
:100B80003AE649ED58E4C701B6010E943B3626E635
:100B90003EE54FEA53E40E94A1332B013C0125EED0
:100BA0003BE34CEB5AE3C501B4010E943B369B0189
:100BB000AC01C301B2010E94A0336D8B7E8B8F8B81
:100BC000988F2BE834EC41EF54E4C701B6010E9442
:100BD0003B369B01AC0166E777E981E893E40E942C
:100BE000A0332B013C0124E53BE248E05BE3C50177
:100BF000B4010E943B369B01AC01C301B2010E94CB
:100C0000A133698F7A8F8B8F9C8FF80184809580B8
:100C1000A680B780A50194016D817E818F81988522
:100C20000E943B3669837A838B839C83A501940160
:100C300069857A858B859C850E943B362B013C011A
:100C4000A50194016D857E858F8598890E943B362C
:100C500069877A878B879C87A501940169897A893E
:100C60008B899C890E943B366D837E838F83988716
:100C7000A50194016D897E898F89988D0E943B36EC
:100C80006D877E878F87988BA5019401698D7A8DFA
:100C90008B8D9C8D0E943B364B015C01A301920120
:100CA000C301B2010E943B362B013C0129813A81EC
:100CB0004B815C81CA01B9010E943B3669837A830A
:100CC0008B839C83C501B4010E949E36698B7A8B0D
:100CD0008B8B9C8B28E83BE44EE85CE3C701B601B4
:100CE0000E943B369B01AC0162E97CED89E891EC06
:100CF0000E94A03329893A894B895C890E943B363E
:100D00006B017C01A5019401C501B4010E94A133CE
:100D10000E949E362BEA3FEC45E55EE30E943B369F
:100D20009B01AC01C701B6010E94A1336B017C019C
:100D30006D817E818F8198850E949E3621E73DE3FB
:100D40004AE85DE30E943B369B01AC01C701B60156
:100D50000E94A1336B017C012D853E854F8558890A
:100D6000CA01B9010E943B369B01AC016D817E81B5
:100D70008F8198850E94A0330E949E3621E23FE138
:100D800044E75CE30E943B369B01AC01C701B6011E
:100D90000E94A0336B017C01A5019401C301B20143
:100DA0000E94A0330E949E362DE435E14CE05DE3C5
:100DB0000E943B369B01AC01C701B6010E94A033E3
:100DC0006B017C012D813E814F815885C301B201A9
:100DD0000E94A0330E949E3621E137EC4AE35CE397
:100DE0000E943B369B01AC01C701B6010E94A133B2
:100DF0006B017C01C301B2010E949E362CEB36E9E7
:100E000040E55EE30E943B369B01AC01C701B601A1
:100E10000E94A0336B017C012D813E814F8158855A
:100E2000C301B2010E94A1330E949E362BEA3FEC1F
:100E300045ED5CE30E943B369B01AC01C701B60166
:100E40000E94A0336B017C01A501940169817A8124
:100E50008B819C810E94A0330E949E362FE539E24F
:100E60004BE45CE30E943B369B01AC01C701B60139
:100E70000E94A1336B017C0129853A854B855C85F5
:100E800069817A818B819C810E94A0330E949E3669
:100E90002EE03FE44FEA5CE30E943B369B01AC014D
:100EA000C701B6010E94A1336B017C0169817A817F
:100EB0008B819C810E949E3623E63EEE42EA5FE3F0
:100EC0000E943B369B01AC01C701B6010E94A033D2
:100ED0006B017C0129853A854B855C8569817A8126
:100EE0008B819C810E94A1330E949E362AE332E9C5
:100EF0004BE45DE30E943B369B01AC01C701B601A8
:100F00000E94A0336B017C0169857A858B859C8565
:100F10000E949E362CE530E241E05EE30E943B36C3
:100F20009B01AC01C701B6010E94A13320E030E073
:100F300041E655E40E9434346C960FB6F894DEBF57
:100F40000FBECDBFDF91CF911F910F91FF90EF901A
:100F5000DF90CF90BF90AF909F908F907F906F90D9
:100F60005F904F9008954F925F926F927F928F9211
:100F70009F92AF92BF92CF92DF92EF92FF92CF9368
:100F8000DF9300D01F92CDB7DEB75C01CB01BA0171
:100F900020EB36E643E15AE40E94A03320E03DEA2C
:100FA0004EE057E40E9434346B017C01F50144802B
:100FB0005580668077802BE834EC41EF54E40E9442
:100FC0003B369B01AC0166E777E981E893E40E9438
:100FD000A0334B015C0124E53BE248E05BE3C70141
:100FE000B6010E943B36A70196010E943B369B0149
:100FF000AC01C501B4010E94A1334B015C012DE796
:1010000031E245E156E3C701B6010E943B36A70134
:1010100096010E943B36A70196010E943B369B0138
:10102000AC01C501B4010E94A1339B01AC01C30115
:10103000B2010E943B360E949E364B015C0125ECBA
:1010400030EA4CE057E4C701B6010E943B362DE27E
:1010500039ED4BE853E40E94A13369837A838B8393
:101060009C832DED38E94EE959E3C701B6010E9492
:101070003B36A70196010E943B369B01AC0169817A
:101080007A818B819C810E94A1339B01AC01C301B9
:10109000B2010E943B369B01AC010E94A1330E9429
:1010A0009E362B013C012AE037ED49E851E4C501A9
:1010B000B4010E943B364B015C012CE53FE842EA5B
:1010C0005FE3C301B2010E943B369B01AC01C50145
:1010D000B4010E94A1334B015C012BE734E14EE8DF
:1010E0005FE3C701B6010E943B362FE13DE04DE9C9
:1010F00055E40E94A133A70196010E943B369B0153
:10110000AC01C501B4010E94A03323EA3EEE4DE9D3
:1011100057E40E94A03320E030E041E655E40E940D
:1011200034340F900F900F900F90DF91CF91FF907C
:10113000EF90DF90CF90BF90AF909F908F907F9077
:101140006F905F904F9008952F923F924F925F92D1
:101150006F927F928F929F92AF92BF92CF92DF92C7
:10116000EF92FF920F931F93CF93DF93CDB7DEB72C
:10117000C857D5400FB6F894DEBF0FBECDBFC95BD0
:10118000DA4F99838883C754D540CB5ADA4F4883C6
:1011900059836A837B83C555D5408FEF93E0E9E19E
:1011A000F6E0DE01119601900D920197E1F79E01A4
:1011B0003C5FC75DDA4F39832883C952D54089E245
:1011C00091E0E8E1FAE0D90101900D920197E1F791
:1011D00020EB36E643E15AE4CB5ADA4F6881798155
:1011E0008A819B81C555D5400E94A033C15DDA4FED
:1011F000688379838A839B83CF52D54020E03DEA80
:101200004EE057E40E9434346B017C019B01AC0139
:101210000E943B364B015C01A70196010E943B36C0
:10122000C55DDA4F688379838A839B83CB52D5402F
:1012300025E832ED42E551E4C15DDA4F68817981FC
:101240008A819B81CF52D5400E943B3625E837E307
:1012500047E853E40E94A1332B013C012FE135E81C
:101260004BEB50E4C501B4010E943B3620E030E076
:1012700041E655E40E9434349B01AC01C301B20144
:101280000E94A0332B013C0129E832ED4EED5BE3D7
:10129000C55DDA4F688179818A819B81CB52D540C7
:1012A0000E943B3620E030E041E655E40E943434B1
:1012B0009B01AC01C301B2010E94A133CF5ADA4FA6
:1012C000688379838A839B83C155D54024E63AE6B7
:1012D00049ED58E4C701B6010E943B3626E63EE5DB
:1012E0004FEA53E40E94A1332B013C0125EE3BE37E
:1012F0004CEB5AE3C501B4010E943B369B01AC01A3
:10130000C301B2010E94A0332B013C012AEB35E856
:101310004DEF55E3C55DDA4F688179818A819B8104
:10132000CB52D5400E943B369B01AC01C301B201B8
:101330000E94A133C359DA4F688379838A839B83E0
:10134000CD56D5402DE03FE94CE057E4C701B6014A
:101350000E943B3628EE3CE343EB53E40E94A1336A
:101360002B013C0122E539E44DE159E3C501B4010B
:101370000E943B369B01AC01C301B2010E94A03325
:101380002B013C012BE332EB4FE556E3C55DDA4F11
:10139000688179818A819B81CB52D5400E943B36FE
:1013A0009B01AC01C301B2010E94A033CF58DA4FB8
:1013B000688379838A839B83C157D5402BEC34E8BB
:1013C0004FE55BE4C701B6010E943B3620E030E008
:1013D00041E655E40E9434342FE23AE247EA53E40E
:1013E0000E94A1332B013C0124E13EEA44E152E496
:1013F000C501B4010E943B3620E030E041E655E4EF
:101400000E9434349B01AC01C301B2010E94A0339D
:101410002B013C012CEE31E548E35DE3C55DDA4F7D
:10142000688179818A819B81CB52D5400E943B366D
:1014300020E030E041E655E40E9434349B01AC01E9
:10144000C301B2010E94A0339B01AC01CF5ADA4F15
:10145000688179818A819B81C155D5400E94A033E2
:10146000AB01BC01C95BDA4F88819981C754D54073
:1014700099DAC75ADA4F688379838A839B83C9557F
:10148000D5402EEB3DE744ED5AE4C701B6010E947A
:101490003B3620E030E041E655E40E9434349B01C5
:1014A000AC0166E777E981E893E40E94A0336B0121
:1014B0007C0129E23CE54FEE50E4C501B4010E94F5
:1014C0003B3620E030E041E655E40E9434349B0195
:1014D000AC01C701B6010E94A1336B017C012FE66C
:1014E00032E143E05CE3C55DDA4F688179818A814E
:1014F0009B81CB52D5400E943B3620E030E041E654
:1015000055E40E9434349B01AC01C701B6010E942E
:10151000A1339B01AC01CF5ADA4F688179818A816E
:101520009B81C155D5400E94A033AB01BC01C95B72
:10153000DA4F88819981C754D54034DAC35ADA4FDB
:10154000688379838A839B83CD55D540C95BDA4F05
:10155000A881B981C754D54014968D919D910D9065
:10156000BC91A02DC55CDA4F88839983AA83BB8385
:10157000CB53D54020E030E044EB53E4BC01CD0137
:101580000E943B362B013C012CEC3CEB4CE85BE22F
:10159000C15DDA4F688179818A819B81CF52D540C4
:1015A0000E943B364B015C01C15DDA4F28813981D5
:1015B0004A815B81CF52D540CA01B9010E943B36B6
:1015C00025E935E946EE54E20E943B366B017C0189
:1015D00020E030E04FE353E40E943B36CD5CDA4F2D
:1015E000688379838A839B83C353D54026E930E39C
:1015F0004AE15BE4C501B4010E943B369B01AC01AA
:101600006EEB7EE889E09FE30E94A033CD5CDA4F69
:10161000288139814A815B81C353D5400E94A1331F
:101620009B01AC01C301B2010E943B360E949E3671
:10163000CD5BDA4F688379838A839B83C354D5401B
:1016400020E030E04CE252E4C701B6010E943B3694
:101650006B017C012DEA37E44CE05DE4C501B40187
:101660000E943B369B01AC0160EE7EE488E39FE381
:101670000E94A033A70196010E94A1339B01AC01F7
:10168000C301B2010E943B369B01AC01CB58DA4F3B
:101690002883C557D540CA58DA4F3883C657D54036
:1016A000C958DA4F4883C757D540C858DA4F5883CE
:1016B000C857D5400E949E36C75BDA4F688379834E
:1016C0008A839B83C954D540CB58DA4F2881C557AC
:1016D000D540CA58DA4F3881C657D540C958DA4F75
:1016E0004881C757D540C858DA4F5881C857D540A8
:1016F000CA01B9010E943134CF59DA4F6883798326
:101700008A839B83C156D54020E737E84BEB59E4E9
:10171000C501B4010E943B3624EB32EA41E15EE3AD
:101720000E94A1339B01AC01C301B2010E943B3670
:101730000E949E36C95CDA4F688379838A839B83D3
:10174000C753D54022E632E74CE05DE4C501B40161
:101750000E943B369B01AC0166E67CEC87EF9EE382
:101760000E94A033A70196010E94A1339B01AC0106
:10177000C301B2010E943B369B01AC01CB58DA4F4A
:101780002883C557D540CA58DA4F3883C657D54045
:10179000C958DA4F4883C757D540C858DA4F5883DD
:1017A000C857D5400E949E36C15CDA4F6883798362
:1017B0008A839B83CF53D540CB58DA4F2881C557B6
:1017C000D540CA58DA4F3881C657D540C958DA4F84
:1017D0004881C757D540C858DA4F5881C857D540B7
:1017E000CA01B9010E943134CB59DA4F6883798339
:1017F0008A839B83C556D54023E638E54CE05DE4FB
:10180000C501B4010E943B369B01AC016DE078E458
:1018100086E09FE30E94A033A70196010E94A133B6
:101820009B01AC01C301B2010E943B360E949E366F
:10183000C759DA4F688379838A839B83C956D54019
:101840002BE33BED4EE25BE4C501B4010E943B3665
:101850009B01AC016AEB79E688E59FE30E94A03327
:101860009B01AC01C301B2010E943B360E949E362F
:10187000C55DDA4F688379838A839B83CB52D540D9
:1018800028E93AE746E959E4C501B4010E943B362C
:101890002BEB3EE34FE65EE30E94A133CD5CDA4FD3
:1018A000288139814A815B81C353D5400E94A1338D
:1018B0009B01AC01C301B2010E943B360E949E36DF
:1018C000CD5CDA4F688379838A839B83C353D54089
:1018D00026E038E14AE05BE4C501B4010E943B36F2
:1018E00026E636E646E15FE30E94A1339B01AC01A8
:1018F000C301B2010E943B360E949E366B017C01FF
:101900002AEC39E241E85CE4C501B4010E943B36AF
:101910009B01AC0162E375E48CE19FE30E94A0337C
:101920009B01AC01C301B2010E943B360E949E366E
:10193000C35BDA4F688379838A839B83CD54D54018
:101940002DE33AE047E55FE3C95CDA4F68817981CE
:101950008A819B81C753D5400E943B364B015C0175
:1019600022E538EB4EE95EE3CD5CDA4F68817981A0
:101970008A819B81C353D5400E943B369B01AC01B9
:10198000C501B4010E94A1334B015C012CEE31E58D
:1019900044E651E4CD5BDA4F688179818A819B818D
:1019A000C354D5400E943B369B01AC01C501B40134
:1019B0000E94A1334B015C012DE13AE548EE50E471
:1019C000C75BDA4F688179818A819B81C954D54090
:1019D0000E943B369B01AC01C501B4010E94A133BA
:1019E0004B015C012EE432E640E95EE3C15CDA4F74
:1019F000688179818A819B81CF53D5400E943B3693
:101A00009B01AC01C501B4010E94A1334B015C01F3
:101A100021E230EB42E75EE3C55DDA4F6881798110
:101A20008A819B81CB52D5400E943B369B01AC0101
:101A3000C501B4010E94A133CD5BDA4F688379837D
:101A40008A839B83C354D5402DEC3CEC4CEC50EC8A
:101A5000C95CDA4F688179818A819B81C753D540FF
:101A60000E943B364B015C0121E73DE34AE85EE31F
:101A7000C701B6010E943B369B01AC01C501B40110
:101A80000E94A0336B017C0125E83BEE41EF5FE350
:101A9000C55DDA4F688179818A819B81CB52D540BF
:101AA0000E943B369B01AC01C701B6010E94A033E6
:101AB0006B017C012DEC3CEC4CE45EE3C35BDA4F44
:101AC000688179818A819B81CD54D5400E943B36C3
:101AD0009B01AC01C701B6010E94A133C35BDA4F81
:101AE000688379838A839B83CD54D5402EE03DE281
:101AF0004AE850ECCF59DA4F688179818A819B811D
:101B0000C156D5400E943B366B017C0121E230EB8F
:101B100042E35FE3CB59DA4F688179818A819B8107
:101B2000C556D5400E943B369B01AC01C701B601AA
:101B30000E94A03320E030E041E655E40E943434B6
:101B400020E030E044EB53E40E9434342EE53AEFD9
:101B50004BE053E40E943B3627E130E040E85FE38E
:101B60000E94A1336B017C0126E636E646E050EC8C
:101B7000C95CDA4F688179818A819B81C753D540DE
:101B80000E943B364B015C012FE23DED44E050E406
:101B9000C75BDA4F688179818A819B81C954D540BE
:101BA0000E943B369B01AC01C501B4010E94A033E9
:101BB0004B015C012DE33AE047E55FE3C15CDA4F9E
:101BC000688179818A819B81CF53D5400E943B36C1
:101BD0009B01AC01C501B4010E94A0334B015C0123
:101BE00029ED3EEC47E15FE3C55DDA4F688179811D
:101BF0008A819B81CB52D5400E943B369B01AC0130
:101C0000C501B4010E94A0339B01AC01CD5BDA4F4A
:101C1000688179818A819B81C354D5400E94A03319
:101C200020E030E041E655E40E9434349B01AC01F1
:101C3000C75ADA4F688179818A819B81C955D5401D
:101C40000E94A1339B01AC01C55CDA4F68817981A8
:101C50008A819B81CB53D5400E943B36C55DDA4FCC
:101C6000688379838A839B83CB52D54020E030E020
:101C700041E655E4C35BDA4F688179818A819B81B3
:101C8000CD54D5400E9434349B01AC01CF58DA4F7B
:101C9000688179818A819B81C157D5400E94A13397
:101CA0009B01AC01C55CDA4F688179818A819B8197
:101CB000CB53D5400E943B36CD5CDA4F68837983A5
:101CC0008A839B83C353D5402EEA37E441E25FE326
:101CD000C95CDA4F688179818A819B81C753D5407D
:101CE0000E943B364B015C0125E83BEE4FEB52E492
:101CF000C75BDA4F688179818A819B81C954D5405D
:101D00000E943B369B01AC01C501B4010E94A13386
:101D10004B015C012EEA37E449E751E4C15CDA4F3C
:101D2000688179818A819B81CF53D5400E943B365F
:101D30009B01AC01C501B4010E94A1334B015C01C0
:101D40002BE734E14EEE5FE3C759DA4F68817981C2
:101D50008A819B81C956D5400E943B369B01AC01CC
:101D6000C501B4010E94A1339B01AC01CD5BDA4FE8
:101D7000688179818A819B81C354D5400E94A033B8
:101D800020E030E041E655E40E9434349B01AC0190
:101D9000C35ADA4F688179818A819B81CD55D540BC
:101DA0000E94A1339B01AC01C55CDA4F6881798147
:101DB0008A819B81CB53D5400E943B36C95CDA4F68
:101DC000688379838A839B83C753D540C35BDA4F8B
:101DD000288139814A815B81CD54D540CD5BDA4F72
:101DE000688179818A819B81C354D5400E94A03348
:101DF00020E030E041E655E40E9434349B01AC0120
:101E0000C359DA4F688179818A819B81CD56D5404B
:101E10000E94A1339B01AC01C55CDA4F68817981D6
:101E20008A819B81CB53D5400E943B36C55CDA4FFB
:101E3000688379838A839B83CB53D54021E537EB35
:101E400042E953E3C15DDA4F688179818A819B81E0
:101E5000CF52D5400E943B369B01AC0160E070E060
:101E600080E89FE30E94A033C15CDA4F68837983E6
:101E70008A839B83CF53D540A7019601C701B60142
:101E80000E943B366B017C01FE0131961F01C75B4E
:101E9000DA4F188219821A821B82C954D540D101A7
:101EA00011960D911C9112971396ED91FC91149738
:101EB000C35BDA4FF983E883CD54D5406C9170E071
:101EC00080E090E00E94CF34C55DDA4F28813981EF
:101ED0004A815B81CB52D5400E943B364B015C016D
:101EE000B801882777FD8095982F0E94CF34CD5C6C
:101EF000DA4F288139814A815B81C353D5400E94E2
:101F00003B369B01AC01C501B4010E94A1334B01DA
:101F10005C01C35BDA4F28813981CD54D540B901CA
:101F2000882777FD8095982F0E94CF34C95CDA4FBF
:101F3000288139814A815B81C753D5400E943B3655
:101F40009B01AC01C501B4010E94A1334B015C01AE
:101F5000D10115966D917C911697882777FD809514
:101F6000982F0E94CF34C55CDA4F288139814A818D
:101F70005B81CB53D5400E943B369B01AC01C50130
:101F8000B4010E94A1330E949E3601151105D1F0C3
:101F9000C15CDA4F288139814A815B81CF53D540BA
:101FA0000E943B360230110519F00E3F1F4F51F4CD
:101FB000C15CDA4F288139814A815B81CF53D5409A
:101FC0000E943B36C35BDA4FE881F981CD54D5409E
:101FD000EF2B21F0A70196010E943B36D101179605
:101FE0002D913D914D915C911A970E943B369B013A
:101FF000AC01C75BDA4F688179818A819B81C954C2
:10200000D5400E94A133C75BDA4F688379838A8306
:102010009B83C954D540BBE02B0E311CC75DDA4F02
:10202000E881F981C952D5402E163F0609F037CF15
:102030005E01F4E0AF0EBF1E8E01035D1A4FC15C5E
:10204000DA4F188219821A821B82CF53D540D501EC
:102050006C9170E080E090E00E94CF34C55DDA4F73
:10206000288139814A815B81CB52D5400E943B3621
:102070006B017C01F50161817281882777FD809574
:10208000982F0E94CF34CD5CDA4F288139814A8164
:102090005B81C353D5400E943B369B01AC01C70115
:1020A000B6010E94A1336B017C01D50113966D919D
:1020B0007C911497882777FD8095982F0E94CF34C4
:1020C000C95CDA4F288139814A815B81C753D54089
:1020D0000E943B369B01AC01C701B6010E94A133AF
:1020E0006B017C01F50165817681882777FD8095FC
:1020F000982F0E94CF34C55CDA4F288139814A81FC
:102100005B81CB53D5400E943B369B01AC01C7019C
:10211000B6010E94A1330E949E36F50134972081BA
:102120003181428153810E943B369B01AC01C15CED
:10213000DA4F688179818A819B81CF53D5400E9493
:10214000A133C15CDA4F688379838A839B83CF5341
:10215000D540FBE0AF0EB11CA016B10609F077CF59
:1021600025EF37E740EE5AE3C15DDA4F68817981A8
:102170008A819B81CF52D5400E943B369B01AC01A6
:1021800060E37CE486EA9EE30E94A0339B01AC01FD
:10219000C301B2010E943B360E949E3628E93EE60A
:1021A00042E55FE30E943B366B017C0125EF37E798
:1021B00040E65BE3C15DDA4F688179818A819B816A
:1021C000CF52D5400E943B369B01AC0160E970EADA
:1021D00088E19EE30E94A0339B01AC01C301B201E0
:1021E0000E943B360E949E362BE13FE24DE95EE3C2
:1021F0000E943B369B01AC01C701B6010E94A1338E
:102200006B017C0128EF3CE244E35AE3C15DDA4F05
:10221000688179818A819B81CF52D5400E943B366B
:102220009B01AC016EEC72EC8EE29FE30E94A03346
:102230009B01AC01C301B2010E943B360E949E3655
:102240002EE03DE242EB5EE30E943B369B01AC0197
:10225000C701B6010E94A1336B017C0125EF3CEC64
:1022600045E15DE3C15DDA4F688179818A819B81B7
:10227000CF52D5400E943B3621E930ED46E25FE384
:102280000E94A1339B01AC01C301B2010E943B3605
:102290000E949E3625ED38E749E25FE30E943B3617
:1022A0009B01AC01C701B6010E94A1336B017C0107
:1022B00022E63CE444E25BE3C15DDA4F6881798168
:1022C0008A819B81CF52D5400E943B369B01AC0155
:1022D00068EE77E881E69FE30E94A0339B01AC01A2
:1022E000C301B2010E943B360E949E3626EA3BE9BA
:1022F00044E25FE30E943B369B01AC01C701B6019B
:102300000E94A1336B017C0123E43BE445E15DE3E2
:10231000C15DDA4F688179818A819B81CF52D54036
:102320000E943B3626EF34EB4BE55FE30E94A1337E
:102330009B01AC01C301B2010E943B360E949E3654
:1023400027E339E841E95FE30E943B369B01AC019A
:10235000C701B6010E94A1336B017C012DE339E571
:1023600044E15DE3C15DDA4F688179818A819B81B7
:10237000CF52D5400E943B3624E23BE048E35FE386
:102380000E94A1339B01AC01C301B2010E943B3604
:102390000E949E3624E63BE34FED5EE30E943B360F
:1023A0009B01AC01C701B6010E94A1336B017C0106
:1023B00023E23BEE45E359E3C15DDA4F6881798161
:1023C0008A819B81CF52D5400E943B3622EB34EF6D
:1023D00049E75FE30E94A1339B01AC01C301B20155
:1023E0000E943B360E949E362BE83CE647EA5EE3BD
:1023F0000E943B369B01AC01C701B6010E94A1338C
:102400004B015C01CB5ADA4F488159816A817B814B
:10241000C555D540C95BDA4F88819981C754D540ED
:102420000E9408059B01AC01CF5ADA4F688179817F
:102430008A819B81C155D5400E94A1336B017C01EB
:10244000C75BDA4F288139814A815B81C954D54005
:10245000CD5BDA4F688179818A819B81C354D540F5
:102460000E94A133C15CDA4F288139814A815B81A6
:10247000CF53D5400E94A133A50194010E94A133FE
:1024800020E030E041E655E40E9434349B01AC0189
:10249000C701B6010E94A133AB01BC01C95BDA4F91
:1024A000A881B981C754D5405C964D935D936D93D7
:1024B0007C935F97CD010E94D204CD5BDA4F688395
:1024C00079838A839B83C354D540C55DDA4F688185
:1024D00079818A819B81CB52D5400E94313422E898
:1024E0003DE847EB5FE30E943B3626E832ED42E5EC
:1024F00051E40E94A1334B015C01C55CDA4F288195
:1025000039814A815B81CB53D540CA01B9010E9410
:10251000A1336B017C010E9431342BED3DE64FE885
:102520005EE30E943B369B01AC01C501B4010E94F1
:10253000A1334B015C01C55DDA4F288139814A81A5
:102540005B81CB52D540C701B6010E94A0330E94E7
:10255000313429EE35ED40E85EE30E943B369B01C5
:10256000AC01C501B4010E94A1334B015C01C55D02
:10257000DA4F288139814A815B81CB52D540CA012B
:10258000B9010E94A133C15DDA4F688379838A83E0
:102590009B83CF52D5400E94313423E234E847EC8C
:1025A0005DE30E943B369B01AC01C501B4010E9472
:1025B000A1334B015C01C95CDA4F288139814A8122
:1025C0005B81C753D540CA01B9010E94A133C95CE0
:1025D000DA4F688379838A839B83C753D5400E94EF
:1025E000313424EC33E448E55DE30E943B369B0143
:1025F000AC01C501B4010E94A0334B015C01C55D73
:10260000DA4F288139814A815B81CB52D540C7019D
:10261000B6010E94A1330E94313427EC3CEB4EE01E
:102620005DE30E943B369B01AC01C501B4010E94F1
:10263000A1332B013C01CD5CDA4F288139814A81DD
:102640005B81C353D540C701B6010E94A0334B0143
:102650005C010E9431342AED33E749E95CE30E94D2
:102660003B369B01AC01C301B2010E94A1332B0197
:102670003C01C55DDA4F288139814A815B81CB52AB
:10268000D540C501B4010E94A0330E94313421E736
:1026900034E049E25CE30E943B369B01AC01C3019C
:1026A000B2010E94A1334B015C01C55DDA4F288164
:1026B00039814A815B81CB52D540CD5CDA4F68814C
:1026C00079818A819B81C353D5400E94A0330E94A7
:1026D000313429E834EB4DE05CE30E943B369B014A
:1026E000AC01C501B4010E94A1334B015C01C55D81
:1026F000DA4F288139814A815B81CB52D540C95C50
:10270000DA4F688179818A819B81C753D5400E94C5
:10271000A1330E9431342DE237E94DE05CE30E94A1
:102720003B369B01AC01C501B4010E94A0334B01B3
:102730005C01C55DDA4F288139814A815B81CB52CA
:10274000D540CD5CDA4F688179818A819B81C35302
:10275000D5400E94A1330E9431342AE43FEC44EF7B
:102760005BE30E943B369B01AC01C501B4010E94B2
:10277000A0334B015C01C55CDA4F688179818A81A5
:102780009B81CB53D5400E94313426EA3EE042EF94
:102790005BE30E943B369B01AC01C501B4010E9482
:1027A000A0334B015C0120E030E040E450E4C55D23
:1027B000DA4F688179818A819B81CB52D5400E9412
:1027C0003B360E94313428E63BEE40EE5BE30E944C
:1027D0003B369B01AC01C501B4010E94A1332B0122
:1027E0003C0120E030E040E850E4C55CDA4F68810D
:1027F00079818A819B81CB53D5400E943B364B0126
:102800005C01C55DDA4F288139814A815B81CB52F9
:10281000D5400E94A0330E9431342EE338EE49EDBA
:102820005BE30E943B369B01AC01C301B2010E94F5
:10283000A1332B013C01C15DDA4F288139814A81E6
:102840005B81CF52D540C701B6010E94A1330E94DF
:10285000313422E232EE46E65BE30E943B369B01D6
:10286000AC01C301B2010E94A1332B013C01C15D47
:10287000DA4F288139814A815B81CF52D540C50129
:10288000B4010E94A0330E94313429EA30E54DE5BD
:102890005BE30E943B369B01AC01C301B2010E9485
:1028A000A1332B013C01C501B4010E94313426EB58
:1028B0003AE647E55BE30E943B369B01AC01C3016E
:1028C000B2010E94A1334B015C01CD5CDA4F6881FB
:1028D00079818A819B81C353D5400E94313427EA94
:1028E00031E441E55BE30E943B369B01AC01C5014D
:1028F000B4010E94A0332B013C01CD5CDA4F28814A
:1029000039814A815B81C353D540C701B6010E941A
:10291000A1334B015C010E9431342BEF3DEC44E4C8
:102920005BE30E943B369B01AC01C301B2010E94F4
:10293000A0332B013C01CD5CDA4F288139814A81DB
:102940005B81C353D540C55DDA4F688179818A8147
:102950009B81CB52D5400E94A033A70196010E94D3
:10296000A1330E94313423EE32EE48E25BE30E9451
:102970003B369B01AC01C301B2010E94A1332B0184
:102980003C01C55DDA4F288139814A815B81CB5298
:10299000D540C95CDA4F688179818A819B81C753B0
:1029A000D5400E94A0330E9431342DE13BE348E240
:1029B0005BE30E943B369B01AC01C301B2010E9464
:1029C000A0332B013C01C15DDA4F288139814A8156
:1029D0005B81CF52D540C701B6010E94A0330E944F
:1029E000313427EA34E24BEE5AE30E943B369B0136
:1029F000AC01C301B2010E94A0332B013C01C95CB0
:102A0000DA4F288139814A815B81C753D540C55D42
:102A1000DA4F688179818A819B81CB52D5400E94AF
:102A2000A033A70196010E94A0330E94313428E60A
:102A30003BEE40EE5AE30E943B369B01AC01C301E2
:102A4000B2010E94A0332B013C01C55DDA4F288101
:102A500039814A815B81CB52D540C501B4010E94C6
:102A6000A0330E9431342DE63FE84EED5AE30E9438
:102A70003B369B01AC01C301B2010E94A0334B0164
:102A80005C01C95CDA4F288139814A815B81C75377
:102A9000D540C701B6010E94A1330E94313425E818
:102AA00037E749EB5AE30E943B369B01AC01C50175
:102AB000B4010E94A0336B017C01CD5CDA4F288108
:102AC00039814A815B81C353D540C15DDA4F68814A
:102AD00079818A819B81CF52D5400E94A0330E9488
:102AE000313425EE3EE04BE95AE30E943B369B0130
:102AF000AC01C701B6010E94A1336B017C01CD5C22
:102B0000DA4F288139814A815B81C353D540C55C46
:102B1000DA4F688179818A819B81CB53D5400E94AD
:102B2000A1330E94313429E93BEB46E95AE30E9484
:102B30003B369B01AC01C701B6010E94A1336B017A
:102B40007C01C55DDA4F288139814A815B81CB5296
:102B5000D540C55CDA4F688179818A819B81CB53EE
:102B6000D5400E94A1330E94313426ED38EA47E86F
:102B70005AE30E943B369B01AC01C701B6010E949B
:102B8000A0336B017C01C15DDA4F288139814A8114
:102B90005B81CF52D540C95CDA4F688179818A81E7
:102BA0009B81C753D5400E94A1330E94313427EF47
:102BB0003FE845E85AE30E943B369B01AC01C70160
:102BC000B6010E94A0336B017C01C15DDA4F288100
:102BD00039814A815B81CF52D540CD5CDA4F688123
:102BE00079818A819B81C353D5400E94A1330E9481
:102BF000313422EC3BED43E85AE30E943B369B0123
:102C0000AC01C701B6010E94A033C95BDA4FE8816D
:102C1000F981C754D540608F718F828F938FCD5BC0
:102C2000DA4F688179818A819B81C354D540C85825
:102C3000DA4F0FB6F894DEBF0FBECDBFDF91CF9154
:102C40001F910F91FF90EF90DF90CF90BF90AF90CA
:102C50009F908F907F906F905F904F903F902F90BC
:102C600008952F923F924F925F926F927F928F9230
:102C70009F92AF92BF92CF92DF92EF92FF920F930B
:102C80001F93CF93DF93CDB7DEB72F970FB6F8948E
:102C9000DEBF0FBECDBF49835A836B837C8348015F
:102CA0005901FC014480558066807780A301920120
:102CB00069817A818B819C810E943B3669837D8307
:102CC0001C01A3019201C701B6010E943B366E832D
:102CD0007F8388879987F981FF878D818E87122D61
:102CE000032D60E070E080E89FE32E813F814885FE
:102CF00059850E9430366F857E8587FD5BC0812FA8
:102D0000902F0E949E369B01AC016F857E85812F9E
:102D1000902F2A873B874C875D870E9431342B0197
:102D20003C012A853B854C855D85C501B4010E9427
:102D30003B369B01AC0169817D81C1010E94A133B9
:102D40002F853E85412F502F0E94A0336B017C01BF
:102D5000A3019201C501B4010E943B369B01AC0165
:102D600060E070E080E89FE30E94A0339B01AC012B
:102D7000C701B6010E9434346B017C019B01AC0198
:102D80006F857E85812F902F0E94A1336F877E876C
:102D9000182F092F20E030E0A901C701B6010E94D9
:102DA0003036181624F0C701B60190589ECFC701DF
:102DB000B6019BCF812F902F2F960FB6F894DEBFD0
:102DC0000FBECDBFDF91CF911F910F91FF90EF907C
:102DD000DF90CF90BF90AF909F908F907F906F903B
:102DE0005F904F903F902F9008952F923F924F9277
:102DF0005F926F927F928F929F92AF92BF92CF928B
:102E0000DF92EF92FF920F931F93CF93DF93CDB793
:102E1000DEB7A8970FB6F894DEBF0FBECDBF1C017A
:102E20004D8F5E8F6F8F78A320EB36E643E15AE437
:102E30006D8D7E8D8F8D98A10E94A0336B017C01DA
:102E400020E03DEA4EE057E40E9434344B015C013F
:102E50009B01AC010E943B366D837E838F839887F4
:102E600022E633E54CE75FE3C701B6010E943B363B
:102E70002DE239ED4BE853E40E94A1336B017C0154
:102E80002AE534E64BE85FE36D817E818F8198858A
:102E90000E943B3620E030E041E655E40E943434A5
:102EA0009B01AC01C701B6010E94A1336D8B7E8BE3
:102EB0008F8B988F2DE338E641EC55E4C501B401C2
:102EC0000E943B3620E030E041E655E40E94343475
:102ED00021E131E74AEC52E40E94A1336B017C010D
:102EE00027ED33EA40ED5FE36D817E818F81988528
:102EF0000E943B3620E030E041E655E40E94343445
:102F00009B01AC01C701B6010E94A1336B017C019A
:102F1000A50194016D817E818F8198850E943B3649
:102F200026EA3BE944E45CE30E943B3620E030E0E3
:102F300041E655E40E9434349B01AC01C701B6015F
:102F40000E94A1339B01AC016D897E898F89988D88
:102F50000E94A03320E030E044E353E40E94A13318
:102F6000AB01BC01C1010E94D204698F7A8F8B8FA3
:102F70009C8FD10114968D919D910D90BC91A02DA7
:102F800089839A83AB83BC8320E030E04EEE52E429
:102F9000C501B4010E943B3626E636E64EEF51E409
:102FA0000E94A13329813A814B815C810E943B368A
:102FB0000E949E366D877E878F87988B2AE939E934
:102FC00041EA51E4C501B4010E943B3624EA30E3F2
:102FD00047E653E40E94A13329813A814B815C8109
:102FE0000E943B360E949E366B017C012FE135E446
:102FF00046E153E4C501B4010E943B3623EC35EFB2
:1030000044E652E40E94A13329813A814B815C81DC
:103010000E943B360E949E36698B7A8B8B8B9C8BF1
:1030200029E632E54FE258E3C501B4010E943B3680
:103030009B01AC016AE779E389E89CE30E94A03335
:103040002B013C012EE93AE447E054E36D817E8197
:103050008F8198850E943B369B01AC01C301B20170
:103060000E94A03369877A878B879C8727E231E3A8
:1030700048E85EE36D857E858F8598890E943B36A2
:103080002B013C012DEC3CEC4CEC50E4C701B601AB
:103090000E943B369B01AC01C301B2010E94A133E7
:1030A0006B017C012FE632E143E85CE3C501B4012A
:1030B0000E943B369B01AC0160E675EE80EF9FE31A
:1030C0000E94A03329893A894B895C890E943B364A
:1030D0009B01AC01C701B6010E94A13320E030E0A2
:1030E00041E655E40E9434349B01AC01698D7A8D30
:1030F0008B8D9C8D0E94A133AB01BC0180EBC82E4F
:103100008FE0D82E81EAE82E84E3F82E09851A850F
:103110002B853C85C101A5DD6B017C0120E030E001
:1031200040E85FE369857A858B859C850E94A133A1
:103130002B013C0129853A854B855C8560E070E078
:1031400080E89FE30E94A0339B01AC01C301B20160
:103150000E9434340E94A8366D877E878F87988BB3
:10316000A7019601F10160817181828193810E94A2
:10317000A0332B013C0120E030E0A9010E94303651
:1031800018165CF42FEF36EE4BED5EE2C301B20190
:103190000E942D3487FF0BC024C02FEF36EE4BED7D
:1031A0005EEAC301B2010E9430361816D4F020E066
:1031B00030E040E05FE3C701B6010E943B360E9469
:1031C000E9369B01AC016D857E858F8598890E94CB
:1031D0003B360E9405349B01AC010E94A1336B0178
:1031E0007C01D10118962D913D914D915C911B97D9
:1031F000C701B6010E943B36AB01BC01C1010E9470
:10320000D2046D877E878F87988B22E83DEE4FEA48
:1032100056E4C501B4010E943B3621EE3AE349E190
:1032200053E40E94A13329813A814B815C810E9441
:103230003B362B013C0122E83DEE4FE257E4C5014D
:10324000B4010E943B362CEE31E948E553E40E947C
:10325000A13329813A814B815C810E943B36698B85
:103260007A8B8B8B9C8B2CE534EC40E057E4C501CA
:10327000B4010E943B3622E538E54CE953E40E9454
:10328000A13329813A814B815C810E943B3669A33D
:103290007AA38BA39CA324E63AE649ED58E4C50142
:1032A000B4010E943B3628EB3EE54FEA53E40E940E
:1032B000A1336B017C0122E63EEB4CEB5AE36D81BE
:1032C0007E818F8198850E943B369B01AC01C701AE
:1032D000B6010E94A03329813A814B815C810E9412
:1032E0003B366D837E838F839887C301B2010E9432
:1032F000313420EF32EA4FEA5AE30E943B366B0149
:103300007C0169897A898B899C890E94313423EDFB
:1033100039ED49EC5AE30E943B369B01AC01C701F1
:10332000B6010E94A1336B017C0169A17AA18BA136
:103330009CA10E9431342FE632E143E05BE30E941E
:103340003B369B01AC01C701B6010E94A1336B0162
:103350007C016D817E818F8198850E949E362FE64B
:103360003EE94AEE5AE30E943B369B01AC01C7019D
:10337000B6010E94A1336DA37EA38FA398A723E378
:1033800033E54FE554E4C501B4010E943B362DEC12
:103390003CEC4DE953E40E94A13329813A814B81F1
:1033A0005C810E943B360E949E366B017C01C3010A
:1033B000B2010E949E3628E533E346EB56E30E94B5
:1033C0003B362B013C0169897A898B899C890E9453
:1033D0009E362EED3EE144E857E30E943B369B01CA
:1033E000AC01C301B2010E94A1332B013C0169A1D0
:1033F0007AA18BA19CA10E949E362FE83BE748E86A
:1034000057E30E943B369B01AC01C301B2010E940D
:10341000A1332B013C016D817E818F8198850E94B3
:1034200031342CE434E041E058E30E943B369B0108
:10343000AC01C301B2010E94A133698B7A8B8B8BE3
:103440009C8B2CE534EC40E857E4C501B4010E94A4
:103450003B3623E333EB40EB53E40E94A133298155
:103460003A814B815C810E943B360E949E366D837F
:103470007E838F83988727E139ED4EE45EE3C701B1
:10348000B6010E943B3620E030E041E655E40E9460
:1034900034349B01AC016DA17EA18FA198A50E943F
:1034A000A1339B01AC016D897E898F89988D0E9423
:1034B000A1332D853E854F8558890E94A133298DE2
:1034C0003A8D4B8D5C8D0E94A0334B015C012985A8
:1034D0003A854B855C85CA01B9010E943B369B0148
:1034E000AC0160E070E080E89FE30E94A0336B01D4
:1034F0007C0129813A814B815C816D857E858F8538
:1035000098890E943B360E94313469837A838B8389
:103510009C834D8D5E8D6F8D78A1C1010E94080541
:103520009B01AC01C501B4010E94A1334B015C01B8
:103530002FEC37EF43EA51E4C701B6010E943B3656
:103540002B013C0122E030E040E85FE3C701B60117
:103550000E943B366B017C0129813A814B815C8161
:1035600069857A858B859C850E943B3620E030E01A
:1035700040E85FE30E94A1339B01AC01C701B601A3
:103580000E9434346B017C0129E536E84BE157E3B6
:103590006D817E818F8198850E943B369B01AC01B5
:1035A00069897A898B899C890E94A1339B01AC012E
:1035B000C701B6010E94A1339B01AC01C301B20156
:1035C0000E94343420E030E041E655E40E94343477
:1035D0009B01AC01C501B4010E94A033AB01BC0149
:1035E000F10140A351A362A373A3C101A8960FB632
:1035F000F894DEBF0FBECDBFDF91CF911F910F9129
:10360000FF90EF90DF90CF90BF90AF909F908F9002
:103610007F906F905F904F903F902F900C94D204CA
:103620004F925F926F927F928F929F92AF92BF92D2
:10363000CF92DF92EF92FF920F931F93CF93DF937E
:1036400000D01F92CDB7DEB74A015B0109831A8310
:103650002B833C83ACE0B0E0A70196010E94693760
:103660002DEF820E20EE921EA11CB11C860E971E1D
:10367000A81EB91E63E37CE086E39EE00E94AA31A7
:103680002AE030E0B501A40186E39EE00E94A83262
:10369000C501B4010E94CD346B017C01C501B401A8
:1036A0002CE030E040E050E00E942537CA01B9012B
:1036B0000E94CD340E940A3520E030E040E451E41D
:1036C0000E943B369B01AC01C701B6010E94A033AA
:1036D0009B01AC010E94A13320E030E040EE50E4B9
:1036E0000E94A1332B013C01ADE6B1E0A50194019C
:1036F0000E9469370E94CD349B01AC01C301B20125
:103700000E94A13320E030E040E451E40E943434D0
:103710004B015C0167E37CE086E39EE00E94AA31F6
:1037200022E030E0B501A40186E39EE00E948F33E1
:10373000C501B4010E940A354B015C0120E030E074
:1037400040E452E4C701B6010E9434340E940A35B5
:103750002B013C0169817A818B819C810E94CF344D
:103760009B01AC01C501B4010E94A133A3019201E8
:103770000E94A13320E036EA4AEF56E40E94A033CB
:103780004B015C012CE834E54CE05AE40E943036F1
:10379000181654F520E030E046E955E4C701B601BB
:1037A0000E9434340E940A352B013C0120E030E0B5
:1037B00046E954E4C701B6010E9434340E940A3538
:1037C0006B017C01A3019201C501B4010E94A133E8
:1037D000A70196010E94A03320E030E048E152E4C6
:1037E0000E94A1334B015C0120E030E040E05FE348
:1037F000C501B4010E94A0330F900F900F900F905D
:10380000DF91CF911F910F91FF90EF90DF90CF90BC
:10381000BF90AF909F908F907F906F905F904F90F0
:1038200008952F923F924F925F926F927F928F9264
:103830009F92AF92BF92CF92DF92EF92FF921F932F
:10384000CF93DF9300D01F92CDB7DEB71C01CB0121
:10385000BA0120E030E040E05FE30E94A1332B0199
:103860003C010E940A350E94A1344B015C010E9478
:10387000CD346B017C019B01AC01C301B2010E94FC
:10388000A03369837A838B839C8324E634E54CE000
:103890005AE4C701B6010E942D3487FD2EC022E8EC
:1038A0003EEE43EE59E4C701B6010E94A03320E486
:1038B0003CEA4EE057E40E9434340E940A356B0122
:1038C0007C0120E030E040E85EE30E943B360E944D
:1038D0000A352B013C01C501B4016F5F7F4F8F4F4B
:1038E0009F4F0E94CD34A70196010E94A133A301EE
:1038F00092010E94A0336B017C0120E030E84EEB86
:1039000054E4C701B6010E94A1336B017C0123E39B
:1039100033E344EF52E40E94A03320E030EA46EB68
:1039200053E40E9434340E940A354B015C0120E0CC
:1039300030EA46EB53E40E943B360E940A359B0175
:10394000AC01C701B6010E94A0332B013C0121E06C
:103950003DEC44EF51E40E9434340E940A356B017F
:103960007C0121E03DEC44EF51E40E943B360E9493
:103970000A359B01AC01C301B2010E94A033298129
:103980003A814B815C810E94A1332B013C010E9452
:103990000A350E94A13469837A838B839C83F10169
:1039A000FF9629813A813183208320E030E048E589
:1039B00051E4C701B6010E942D3487FF10C020E0FA
:1039C00030E040E85FE3C701B6010E94A0330E94E7
:1039D000A134D101DE967C936E93DD970DC020E07B
:1039E00030E040E551E4C701B6010E94A0330E94D7
:1039F000A134F10176AF65AFD101DD966D917C9177
:103A0000DE9780E090E00E94CD346B017C0120E0E5
:103A100030E040E250E40E94303618166CF420E0AA
:103A200030E643E955E4C501B4010E94A0330E9489
:103A3000A134F10174AF63AF20E030E040E250E424
:103A4000C701B6010E942D3487FF0FC020E038E582
:103A500043E955E4C501B4010E94A0330E94A1349A
:103A6000D101DC967C936E93DB97E981FA81BF01EB
:103A700080E090E00E94CD349B01AC01C301B20113
:103A80000E94A03320E030E040EC51E40E943B363D
:103A90000E949C346B017C010E94CF340E940A3545
:103AA0000E94A134F101EF5BFF4F71836083C61A5E
:103AB000D70A1CE31C9D70011D9DF00C1124B70159
:103AC00080E090E00E94CD340E940A350E94A1342B
:103AD000F101ED5BFF4F71836083E61AF70A1E9DCB
:103AE000B0011F9D700D112480E090E00E94CD3444
:103AF0000E940A35F5E42F0E311C0E94A134D10139
:103B00006D937C930F900F900F900F90DF91CF915A
:103B10001F91FF90EF90DF90CF90BF90AF909F905C
:103B20008F907F906F905F904F903F902F9008956F
:103B30004F925F926F927F928F929F92AF92BF92BD
:103B4000CF92DF92EF92FF92CF93DF93CDB7DEB7A4
:103B5000C45AD1090FB6F894DEBF0FBECDBF7C01A9
:103B60004A015B0180EAE1E4FBE0DE01119601908D
:103B70000D928A95E1F7C70154DE6BE37CE086E3A2
:103B80009EE00E94AA31F70163AD74AD4AE050E0B7
:103B900086E39EE00E949432F70163AD74AD80E04D
:103BA00090E00E94CD342B013C01F70165AD76AD6C
:103BB0006150710980E090E00E94CD3420E030E057
:103BC00040E451E40E9434349B01AC01C301B201D2
:103BD0000E94A1332B013C01F701FF9660817181A6
:103BE0006150710980E090E00E94CD3420E030EA1D
:103BF00046EB53E40E9434349B01AC01C301B20193
:103C00000E94A1336B017C0162E47CE086E39EE0CC
:103C10000E94AA3122E030E0B701A60186E39EE0CF
:103C20000E948F3324E03CE241E15AE4C501B40133
:103C30000E94A03320E03DEA4EE057E40E94343475
:103C40004B015C0120E030E84AEC54E4C701B601C6
:103C50000E94303687FD7AC020E030E44BEF54E418
:103C6000C701B6010E942D3487FF70C020E030E804
:103C70004AEC54E4C701B6010E94A03320E030E0D2
:103C800040E251E40E9434340E940A350E94A1347B
:103C90004B015C01FB01EE0FFF1FEE0FFF1F81E0E8
:103CA00090E08C0F9D1FE80FF91F408051806280CB
:103CB0007380D501C4010196A11DB11DFC01EE0F59
:103CC000FF1FEE0FFF1F81E090E08C0F9D1FE80F9C
:103CD000F91FA301920160817181828193810E9409
:103CE000A033CF55DF4F688379838A839B83C15A82
:103CF000D040C501B4010E94CD3420E030E040E264
:103D000051E40E943B3620E030E84AEC54E40E9443
:103D1000A1339B01AC01C701B6010E94A0339B01F6
:103D2000AC01CF55DF4F688179818A819B81C15A6F
:103D3000D0400E943B3620E030E040E251E40E9457
:103D400034349B01AC01C301B2016EC020E030E409
:103D50004BEF54E4C701B6010E94303687FD15C011
:103D600020E030E04CEC51E4C501B4010E943B3648
:103D7000A50194010E943B3620E030E04CE152E482
:103D80000E94A0332B013C0103C0412C512C320175
:103D900020E030E04DE654E4C701B6010E94303621
:103DA00087FD18C020E030E84AEC54E4C701B601B2
:103DB0000E942D3487FF0EC020E030E04CEC51E42F
:103DC000C501B4010E943B36A50194010E943B3617
:103DD0002B013C0120E030E04DE654E4C701B60180
:103DE0000E942D3487FF24C020E030E040EA53E4F5
:103DF000C501B4010E943B3626E636E34AEA54E4A4
:103E00000E94A1336B017C0123E333E341E352E4DD
:103E1000C501B4010E943B36A50194010E943B36C6
:103E20009B01AC01C701B6010E94A1332B013C01EB
:103E300020E030E041E655E4C301B2010E94343491
:103E4000CC55DF4F0FB6F894DEBF0FBECDBFDF916C
:103E5000CF91FF90EF90DF90CF90BF90AF909F9069
:103E60008F907F906F905F904F9008953F924F9208
:103E70005F926F927F928F929F92AF92BF92CF92FA
:103E8000DF92EF92FF920F931F93CF93DF93EC019A
:103E9000162F342E5901460181E090E09BA78AA796
:103EA0009DA78CA71CA21DA21EA21FA2602F70E0BE
:103EB00080E090E00E94CD342B013C016E2D70E03B
:103EC00080E090E00E94CD3420E030E040E752E412
:103ED0000E9434349B01AC01C301B2010E94A133A2
:103EE0002B013C0168E47CE086E39EE00E94AA315D
:103EF0004AE050E0B50186E39EE00E9494326501FD
:103F0000E12CF12C012F10E020E030E0432D50E0B7
:103F100060E070E0CE0184DB6B017C016FE47CE04B
:103F200086E39EE00E94AA3122E030E0B701A601BC
:103F300086E39EE00E948F33B401882777FD809549
:103F4000982F0E94CF349B01AC01C301B2010E94A3
:103F5000A03320E030E040EC51E40E9434349B0177
:103F6000AC01C701B6010E94A1336B017C0165E57C
:103F70007CE086E39EE00E94AA3122E030E0B701B7
:103F8000A60186E39EE00E948F33B701A601CE0111
:103F9000CFDD4B015C016CE57CE086E39EE00E9496
:103FA000AA3122E030E0B501A40186E39EE00E9440
:103FB0008F3320E030E040EC51E4C501B4010E94B1
:103FC00034349B01AC01C701B6010E94A1336B01DF
:103FD0007C01AB01BC01CE010E94B3076CA37DA3A1
:103FE0008EA39FA361E67CE086E39EE00E94AA3157
:103FF00022E030E0B701A60186E39EE00E948F3305
:1040000066E67CE086E39EE00E94AA314CA15DA1B9
:104010006EA17FA122E030E086E39EE00E948F3314
:10402000B701A601CE010E94A4086C877D878E8708
:104030009F8761E77CE086E39EE00E94AA314C8581
:104040005D856E857F8522E030E086E39EE00E94FC
:104050008F33B701A601CE010E94A408688B798B2B
:104060008A8B9B8BB701A601CE010E94F5166C8B43
:104070007D8B8E8B9F8B68E77CE086E39EE00E94C1
:10408000AA314C895D896E897F8922E030E086E320
:104090009EE00E948F33CCA0DDA0EEA0FFA02C8D6F
:1040A0003D8D4E8D5F8DC701B6010E94A13322EE7A
:1040B00030ED4FEE58E40E94A0334B015C0128A183
:1040C00039A14AA15BA1C701B6010E94A1332AEE22
:1040D00030E740E157E40E94A0339B01AC01C501E9
:1040E000B4010E94A13320E030E040EC50E40E9493
:1040F0003B3620E030E040EA52E40E9434346B0169
:104100007C0120E030E0A9010E942D3487FF09C026
:1041100020E030E048ED51E4C701B6010E94A13330
:10412000EECF20E030E048ED51E4C701B6010E9437
:10413000303618165CF420E030E048ED51E4C70159
:10414000B6010E94A0336B017C01EBCFC701B60121
:104150000E940A350E949C3479AB68AB6EE77CE024
:1041600086E39EE00E94AA3168A979A94AE050E05E
:1041700086E39EE00E9472322CA13DA14EA15FA178
:104180006C857D858E859F850E94A133AB01BC0126
:10419000CE010E94D20420E030E040EC50E40E94C6
:1041A0003B3620E030E040EA52E40E9434340E9482
:1041B0000A350E949C347DA76CA765E87CE086E305
:1041C0009EE00E94AA316CA57DA54AE050E086E3FE
:1041D0009EE00E947232AC84BD840E851F85CC881F
:1041E000DD88EE88FF88A7019601B501C8010E940D
:1041F0002D3487FF0BC020E030E044EB53E4B501E1
:10420000C8010E94A133FB01DC0102C0F501D80105
:10421000A7019601BF01CD010E94A03320E030E04C
:1042200040E451E40E9434340E940A350E949C34D8
:104230007BA76AA7A7019601B501C8010E942D348A
:1042400087FF0AC020E030E044EB53E4B501C80129
:104250000E94A1335B018C01A7019601B501C80141
:104260000E94A03320E030E040EC50E40E9434345F
:104270000E940A350E949C346115710581059105E3
:1042800019F42AE030E008C0693371058105910511
:104290002CF09B01225331093FA72EA76B017C0113
:1042A00021E0C21AD108E108F10888E3C816D10458
:1042B000E104F10440F5C701B60127E030E040E039
:1042C00050E00E944737CA01B9010E94CF340E94D2
:1042D0000A354B015C01C701B6010E94CF346B0166
:1042E0007C0120E030E040EE50E4C501B4010E94C2
:1042F0003B369B01AC01C701B6010E94A0330E946E
:104300009C347FA76EA7DF91CF911F910F91FF90F3
:10431000EF90DF90CF90BF90AF909F908F907F9065
:104320006F905F904F903F900895CF92DF92EF9201
:10433000FF920F931F936B017C01CA01B901C11455
:10434000D104E104F10421F4C12CD12C7601C394F1
:10435000C092680DD092690DE0926A0DF0926B0DDB
:104360001093670D0093660D209170002E7F2093AF
:1043700070002091B0002C7F2093B0002091B100FC
:10438000277F2093B1002091B6002F7D2093B600A7
:10439000209170002D7F209370002091B100246047
:1043A0002093B1002091B1002C7F2093B10020E038
:1043B00034E244E75BE40E943B3620E030E040E832
:1043C0005CE30E943B360E949C3420E031E0261BD7
:1043D000370B3093600D20935F0D1F910F91FF906D
:1043E000EF90DF90CF9008950F931F938A012FE6EF
:1043F00032E143E85AE399DF1F910F91089510923B
:10440000620D1092630D1092640D1092650D109262
:10441000610D80915F0D9091600D8093B200E0E797
:10442000F0E080818160808308958091620D909199
:10443000630DA091640DB091650D0196A11DB11D94
:104440008093620D9093630DA093640DB093650DFE
:104450008091620D9091630DA091640DB091650DF6
:104460004091680D5091690D60916A0D70916B0DCE
:1044700084179507A607B70710F18091610D811188
:104480001EC081E08093610D8091620D9091630D5B
:10449000A091640DB091650D841B950BA60BB70B15
:1044A0008093620D9093630DA093640DB093650D9E
:1044B000E091660DF091670D19951092610D0895C8
:1044C0001F920F920FB60F9211240BB60F922F93DB
:1044D0003F934F935F936F937F938F939F93AF938C
:1044E000BF93EF93FF9380915F0D9091600D809348
:1044F000B2009BDFFF91EF91BF91AF919F918F91A0
:104500007F916F915F914F913F912F910F900BBED3
:104510000F900FBE0F901F901895CF93CFB7F894C0
:1045200080916C0D811127C0E2E3F7E08491ECEEFD
:10453000F6E09491E82FF0E0EE0FFF1FE35AF84FFA
:10454000A591B4918C91892321F461E085E30E94C7
:104550000E2F61E085E30E94D52E8CB580618CBD65
:104560008CB580648CBD61E084E30E94D52E61E04F
:1045700083E30E94D52E80916C0D8F5F80936C0D2C
:10458000CFBFCF91089580919D0D90E020919E0D19
:10459000821B9109089520919E0D80919D0D2817F1
:1045A00050F4E22FF0E0E156F24F808190E02F5F6F
:1045B00020939E0D08958FEF9FEF0895E0919E0D3B
:1045C00080919D0DE81730F4F0E0E156F24F8081C4
:1045D00090E008958FEF9FEF08950895CF92DF92B6
:1045E000EF92FF920F931F93CF93DF937C01CB0148
:1045F0008A012091790D222389F0EB016B01C40E11
:10460000D51ECC15DD0561F06991D701ED91FC91C6
:104610000190F081E02DC7011995F3CF642FE4D00C
:10462000C801DF91CF911F910F91FF90EF90DF9024
:10463000CF900895CF93DF931F92CDB7DEB76983F4
:104640002091790D2223D1F020917A0D203240F073
:1046500021E030E0FC013383228380E090E014C04D
:1046600080917B0DE82FF0E0E458F24F9981908320
:104670008F5F80937B0D80937A0D04C061E0CE0143
:104680000196B2D081E090E00F90DF91CF91089534
:10469000FC011382128248EE53E060E070E0448334
:1046A00055836683778380E99CE0918380830895B6
:1046B00010929E0D10929D0D10927B0D10927A0D0E
:1046C00022C081E08093790D60939C0D10927B0D48
:1046D00010927A0D0895F5CF0F93062F21E04091A7
:1046E0007A0D6CE77DE080919C0D2BD010927B0DB4
:1046F00010927A0D1092790D0F91089561E0ECCF30
:104700008DE69DE0C5CF10922C0E81E080932A0E9D
:104710001092290E61E084E10E940E2F61E085E194
:104720000E940E2FE9EBF0E080818E7F80838081F4
:104730008D7F808388E48093B80085E48093BC00FB
:1047400008950F93413208F046C090912C0E9111BC
:10475000FCCF92E090932C0E00932A0E9FEF909343
:10476000BF0D1092040E4093030EFB0165E07EE046
:10477000DB019A2F961B941718F491919D93F9CF12
:1047800010922B0E90912B0E880F892B80932B0E5D
:104790008091290E813041F41092290E80912B0EC8
:1047A0008093BB0085EC01C085EE8093BC00222382
:1047B00021F080912C0E8230E1F38091BF0D8F3F6C
:1047C00061F08091BF0D803251F08091BF0D803338
:1047D00041F483E007C081E005C080E003C082E0CF
:1047E00001C084E00F910895613298F420912C0E5D
:1047F000243089F46093E10DFC0183EE9DE0DC013F
:104800002A2F281B261718F421912D93F9CF80E029
:10481000089581E0089582E0089585ED8093BC00BD
:104820008091BC0084FDFCCF10922C0E089585EC85
:104830008093BC0010922C0E08951F920F920FB619
:104840000F9211240BB60F922F933F934F935F93C8
:104850006F937F938F939F93AF93BF93EF93FF9348
:104860008091B900887F803609F49CC068F5883251
:1048700009F45BC090F4803109F454C038F4882303
:1048800009F4F3C0883009F44DC0F2C0883109F44E
:104890004CC0803209F45DC0EBC0803409F468C0BC
:1048A00048F4803309F455C0883309F0E1C080939F
:1048B000BF0DA7C0803509F44FC0883509F45DC02D
:1048C000883409F0D5C0D3C0883909F4C4C0A8F42D
:1048D000883709F467C038F4883609F463C0803734
:1048E00009F460C0C5C0883809F4B5C0803909F43E
:1048F0005FC0803809F0BCC05BC0803B09F483C056
:1049000038F4803A09F466C0883A09F47CC0B0C033
:10491000803C09F4A4C0883C09F4A1C0883B09F498
:1049200087C0A6C080912B0E10C09091040E80917C
:10493000030E981770F5E091040E81E08E0F8093BE
:10494000040EF0E0EB5FF14F80818093BB0085ECBB
:1049500083C08093BF0D8BC0E091040E81E08E0F69
:104960008093040E8091BB00F0E0EB5FF14F8083F9
:104970009091040E8091030E6BC0E091040E81E0D3
:104980008E0F8093040E8091BB00F0E0EB5FF14F3F
:10499000808380912A0E81116AC081E08093290E64
:1049A00084EA5EC083E080932C0E1092C00DCFCFBE
:1049B0008091C00D803208F04EC0E091C00D81E0C2
:1049C0008E0F8093C00D8091BB00F0E0EF53F24F4B
:1049D0008083BDCF8091C00D803230F4E091C00D56
:1049E000F0E0EF53F24F108218DF6091C00D70E0DD
:1049F000E091250EF091260E81EC9DE01995109224
:104A0000C00D15DF35C084E080932C0E1092E20DAE
:104A10001092E10DE091270EF091280E19958091EA
:104A2000E10D811105C081E08093E10D1092E30D4D
:104A3000E091E20D81E08E0F8093E20DF0E0ED5108
:104A4000F24F80818093BB009091E20D8091E10D47
:104A5000981708F47CCF85E88093BC0009C085ECEA
:104A60008093BC0010922C0E03C01092BF0DD5DEB7
:104A7000FF91EF91BF91AF919F918F917F916F9136
:104A80005F914F913F912F910F900BBE0F900FBEF2
:104A90000F901F9018952F923F924F925F926F92B6
:104AA0007F928F929F92AF92BF92CF92DF92EF92BE
:104AB000FF920F931F93CF93DF9300D01F92CDB738
:104AC000DEB74C017C836B836A015901C801870101
:104AD000AC014C195D0957FF03C05195419551092F
:104AE00095016B817C81261B370B37FF03C0319505
:104AF0002195310922242394312C2417350714F0F1
:104B0000212C312C2114310459F03A2D2B2D5C012C
:104B1000832F922F3B812C81DC82CB82C32ED22E1D
:104B2000AB81BC81AA16BB065CF43C2D2D2D6C011B
:104B3000832F922F3B812C81BC82AB82A32EB22E7D
:104B40002501EB81FC814E1A5F0A3C016C187D083F
:104B500077FE03C0719461947108720157FE03C01F
:104B6000FFEFEF1AFF0AF594E794C816D9062CF464
:104B700021E030E03A83298324C06FEF7FEF7A830E
:104B800069831FC0D401ED91FC910480F581E02D73
:104B9000980121143104D9F04B815C81B601C40124
:104BA0001995E618F708F7FE06C0E981FA81CE0EDE
:104BB000DF1EE40CF51C2B813C812F5F3F4F3C83B3
:104BC0002B836B817C81A616B706E4F604C0A60190
:104BD0006B817C81E4CF0F900F900F900F90DF914D
:104BE000CF911F910F91FF90EF90DF90CF90BF90EA
:104BF000AF909F908F907F906F905F904F903F907D
:104C00002F9008956F927F928F929F92AF92BF9252
:104C1000CF92DF92EF92FF920F931F93CF93DF9388
:104C2000EC015B016A0139014801E881F9810284E4
:104C3000F385E02D87011995E881F981A601480DDA
:104C4000591D415051090284F385E02D9301B501AE
:104C5000CE011995E881F9810084F185E02D940158
:104C6000A601B501CE011995E881F981B501660D5E
:104C7000771D615071090084F185E02D9401A60132
:104C8000CE011995DF91CF911F910F91FF90EF9079
:104C9000DF90CF90BF90AF909F908F907F906F905C
:104CA0000895EF92FF920F931F93DC01ED91FC9119
:104CB000240F351F215031090680F781E02D78013E
:104CC00089019B0119951F910F91FF90EF90089515
:104CD000EF92FF920F931F93DC01ED91FC91260F51
:104CE000371F215031090680F781E02D78018A01B4
:104CF00019951F910F91FF90EF9008956F927F92F9
:104D00008F929F92AF92BF92CF92DF92EF92FF92DB
:104D10000F931F93CF93DF935C014A016901380120
:104D2000EB01C60ED71ECC15DD0574F4D501ED914F
:104D3000FC910084F185E02D87019301A401BE015F
:104D4000C50119952196EFCFDF91CF911F910F915A
:104D5000FF90EF90DF90CF90BF90AF909F908F909B
:104D60007F906F900895EF92FF920F931F93DC0155
:104D7000ED91FC9111971A960D911C911B97189625
:104D80002D913C9119970684F785E02D7B0140E039
:104D900050E060E070E019951F910F91FF90EF9047
:104DA00008950895FC011382128280EA9CE09183A9
:104DB00080837583648357834683718760875387B5
:104DC0004287158A158614861786168621E0248B5D
:104DD0008FEF9FEF938B828B918B808B268B089527
:104DE0002F923F924F925F926F927F928F929F92FB
:104DF000AF92BF92CF92DF92EF92FF920F931F93E9
:104E0000CF93DF93CDB7DEB72C970FB6F894DEBF04
:104E10000FBECDBF9C878B873A0118870F83FA8618
:104E2000E986CD82DC0118968D919C9119976817BF
:104E300079070CF094C01A968D919C911B97481796
:104E400059070CF08CC08C2C912CCB01B6E0CB9E7A
:104E5000800D911D1124181619060CF080C0C40194
:104E600053E0880F991F5A95E1F7860D971D181684
:104E700019060CF074C0F5E02F9F200111245B018E
:104E80006B011C8292012A583E4F2901461A570A8B
:104E90003C81353031F0F201EA0DFB1D44914B832A
:104EA00001C01B827A82698213011E828B8180FF7E
:104EB00013C0AB85BC85ED91FC91BD81B13031F45F
:104EC0000480F581E02D2F81388519C00684F7858F
:104ED000E02DEF80F8841EC0E985FA852F813885A2
:104EE000E217F307F9F0AB85BC85ED91FC91BD812C
:104EF000B13059F40480F581E02D29853A85A1016E
:104F0000B5018B859C8519950DC00684F785E02D2C
:104F1000E984FA848401940149815A81B6018B8520
:104F20009C851995EB81E695EB83FE81FF5FFE83FF
:104F300029813A81280D391D3A8329833FEF231AAD
:104F4000330AF83009F0B2CF4C814F5F4C83C80C64
:104F5000D91C8FEFA81AB80A463009F099CF2C96C1
:104F60000FB6F894DEBF0FBECDBFDF91CF911F917A
:104F70000F91FF90EF90DF90CF90BF90AF909F90F8
:104F80008F907F906F905F904F903F902F900895FB
:104F9000CF92EF92FF920F931F93CF93DF93EC0189
:104FA000262F6A3049F42C898E859F8538E0239F0F
:104FB000800D911D112431C06D3099F1EA88FB8874
:104FC000088919894E855F856C857D85CC8808DFC9
:104FD0002C89422F50E08C859D8536E0239F800DE3
:104FE000911D11249D878C872E892223D1F06AEF91
:104FF00064039001659F300D112468857985260F23
:10500000371F281739076CF463E0440F551F6A9562
:10501000E1F78E859F85840F951F9F878E871D865C
:105020001C8681E090E0DF91CF911F910F91FF905E
:10503000EF90CF900895FC01758764875787468766
:105040000895611101C061E0FC01648B0895FC01C9
:10505000738B628B718B608B0895FC018589089539
:10506000FC01808591850895FC01828593850895D2
:105070000F931F93CF93DF93EC018D89823061F002
:105080008330D9F0813009F0C8C0EC81FD81E41B88
:10509000F50B3197DB0118C08C819D81DC01A61BCB
:1050A000B70BBD018E819F81FC01E41BF50BAF01A5
:1050B00041505109621B730BB0C0AE81BF81A61B6A
:1050C000B70BA21BB30BFA01F7FD05C18C819D81C3
:1050D000E817F9070CF0FFC0B7FF04C02A0F3B1F09
:1050E000A0E0B0E08E819F81AD01420F531F841775
:1050F00095071CF49C012A1B3B0B121613060CF09F
:10510000EAC0422F8A2F86958695869590E8899FDA
:10511000E00DF11D1124E85EFD4FA77069F158E024
:105120005A1B852F90E0EC01C05FDD4F6881251789
:1051300060F4DC01A21BB1098FEF90E00A2E02C0DF
:10514000959587950A94E2F768230130110539F0A7
:1051500048F00230110551F48081862706C0808115
:10516000862B03C06095808186238083451708F4D1
:10517000B2C0451BE058FF4F4830A0F10230110586
:10518000A9F4DF01842F9C9190959C93A058BF4F68
:1051900088508830C0F788EF840F8695869586956D
:1051A000B0E88B9FE00DF11D112419C081E00130A2
:1051B000110509F080E0982F9195EF01842F9883D5
:1051C000C058DF4F88508830D0F788EF840F86951D
:1051D0008695869590E8899FE00DF11D1124E05891
:1051E000FF4F4770442309F476C0A42FB0E0A85FB6
:1051F000BD4F9C910130110541F050F00230110576
:1052000009F069C08081892706C08081892B03C08D
:1052100090958081892380835EC057FD5CC08E811C
:105220009F81481759070CF056C077FF04C0260F1E
:10523000371F60E070E08C819D81FB01E20FF31F5E
:105240008E179F071CF49C01261B370B12161306A2
:105250000CF041C0CA0157FD0796E3E0959587958C
:10526000EA95E1F79695982F882797958795885E18
:105270009D4F860F971F4770552761E070E001C072
:10528000660F4A95EAF7462F0130110541F088F084
:105290000230110501F5FC01280F391F15C0FC0172
:1052A000280F391FE217F307B1F08081842B819317
:1052B000F9CF6095FC01280F391FE217F30759F069
:1052C000808186238193F9CFE217F30721F0808153
:1052D00084278193F9CFDF91CF911F910F9108958A
:1052E0000F931F93CF93DF93FC018589823069F080
:1052F0008330E1F0813009F082C0C481D581C41BC4
:10530000D50BC21BD30BDB0117C084819581DC0157
:10531000A61BB70BBD016150710986819781DC0125
:10532000A41BB50BAD01421B530B69C0A681B7810D
:10533000A61BB70B1197EA01B7FD08C186819781BB
:10534000A817B9070CF002C1D7FF04C02C0F3D1FEE
:10535000C0E0D0E084819581AE01420F531F8417D5
:1053600095071CF49C012C1B3D0B121613060CF028
:10537000EDC0CD01B7FD079643E0959587954A9519
:10538000E1F79695982F882797958795885E9D4F8A
:105390008C0F9D1FA770BB2741E050E00A2E01C073
:1053A000440F0A94EAF7642F0130110549F098F090
:1053B0000230110509F0CAC0FC01280F391F17C0BF
:1053C000FC01280F391FE217F30709F4BFC08081E1
:1053D000862B8193F8CF4095FC01280F391FE217E7
:1053E000F30709F4B3C0808184238193F8CFE217D7
:1053F000F30709F4ABC0808186278193F8CF77FD4E
:10540000A5C084819581681779070CF09FC057FF6C
:1054100004C0240F351F40E050E086819781FA01D7
:10542000E20FF31F8E179F071CF49C01241B350B02
:10543000121613060CF08AC0522F842F869586957B
:105440008695FB01B0E88B9FE00DF11D1124E85E0D
:10545000FD4F477069F168E0641B862F90E0EC0116
:10546000C05FDD4F4881261760F4DC01A21BB10943
:105470008FEF90E00A2E02C0959587950A94E2F787
:1054800048230130110539F048F00230110551F47C
:105490008081842706C08081842B03C04095808151
:1054A00084238083561708F451C0561BE058FF4FE1
:1054B0005830A0F102301105A9F4DF01852F9C912D
:1054C00090959C93A058BF4F88508830C0F788EFC4
:1054D000850F869586958695B0E88B9FE00DF11D2A
:1054E000112419C081E00130110509F080E0982FE6
:1054F0009195EF01852F9883C058DF4F88508830F1
:10550000D0F788EF850F86958695869590E8899FD8
:10551000E00DF11D1124E058FF4F57705523B1F0F5
:10552000A52FB0E0A85FBD4F9C910130110539F067
:1055300048F00230110551F48081892706C080812E
:10554000892B03C09095808189238083DF91CF913F
:105550001F910F910895CF92DF92EF92FF920F93D8
:105560001F93CF93DF937C018B01EA01690177FDE3
:105570009DC076DD081719070CF098C0D7FD96C0BE
:10558000C70172DDC817D9070CF090C0C70165DDEF
:10559000823009F07FC0F701848195819C01201B36
:1055A000310B89010150110986819781FC01EC1BA7
:1055B000FD0BEF0121970BC0813049F4F701848185
:1055C00095818C1B9D0BE8018C0101501109F1E0C4
:1055D000CF16D10431F010F132E0C316D104E1F15D
:1055E00065C0FE01D7FD379683E0F595E7958A956E
:1055F000E1F7F695FE2FEE27F795E795E00FF11FFF
:10560000E85EFD4FC770DD2781E090E00C2E01C001
:10561000880F0A94EAF79081982B3AC0FE01D7FDD3
:105620003796A3E0F595E795AA95E1F7F695FE2F55
:10563000EE27F795E795E00FF11FE85EFD4FC77085
:10564000DD2781E090E00C2E01C0880F0A94EAF774
:105650008095908198231CC0FE01D7FD379663E0AA
:10566000F595E7956A95E1F7F695FE2FEE27F79504
:10567000E795E00FF11FE85EFD4FC770DD2781E081
:1056800090E00C2E01C0880F0A94EAF790819827C9
:1056900090830CC0833009F08FCFF701868197810A
:1056A000801B910B8E01EC01219791CFDF91CF915F
:1056B0001F910F91FF90EF90DF90CF9008951F936F
:1056C000CF93DF93EC01162F40E450E060E870E0E8
:1056D00069DB88EB9CE0998388838FEF898F8D8FBE
:1056E0008B8F8A8F1C8FDF91CF911F91089580E05F
:1056F00094E0E8E1F2E0DF019C011D92215030408E
:10570000E1F70895FC01868D882339F06EBD000015
:105710000DB407FEFDCF8EB5089588E090E030E827
:10572000A1A1B2A14C9120A5209524232C93A78D53
:10573000B0A127A1432F462321F04C91422B4C933B
:1057400004C04C91209524232C93A1A1B2A12C91AB
:1057500040A5242B2C933695019711F708951F939C
:10576000CF93DF93EC01162F898D8F3F01F1EBA1D1
:10577000FCA1808199A5892B8083EDA1FEA1908158
:105780008AA5809589238083EBA1FCA1908189A5BE
:10579000809589238083CE01B5DFEBA1FCA18081B8
:1057A00099A5892B8083DF91CF911F9108958F89CF
:1057B000682F772767FD70958DE69DE00E946B232B
:1057C00060E08DE69DE00E941A23612F8DE69DE04A
:1057D0000E941A238DE69DE0DF91CF911F910C94DA
:1057E0007E230F931F93CF93DF93EC01162F022F8D
:1057F000688F4F8B898D8F3F09F473C061E08B8D6B
:10580000D4D261E08D8DD1D28D8D992787FD909571
:10581000FC01E350F94FE491F0E0EE0FFF1FED5B68
:10582000F84F259134913CA32BA3FC01E954F94F87
:10583000849189A78B8D992787FD9095FC01E35072
:10584000F94FE491F0E0EE0FFF1FED5BF84F25916B
:1058500034913EA32DA3FC01E954F94F84918AA70A
:105860008E8D811132C061E0898D9FD261E08A8D79
:105870009CD28A8D992787FD9095FC01E350F94FC2
:10588000E491F0E0EE0FFF1FED5BF84F25913491AE
:105890003AA329A3FC01E954F94F849188A7898D83
:1058A000992787FD9095FC01E350F94FE491F0E0D2
:1058B000EE0FFF1FED5BF84F2591349138A32F8F2A
:1058C000FC01E954F94F84918FA38E8D882369F0F0
:1058D0000E948D228CB58C7F8CBD8DB581608DBD75
:1058E00004C08DE69DE00E9458230023B1F061E0E2
:1058F0008C8D5BD261E08C8D91D261E070E080E0B4
:1059000090E053D160E08C8D89D26AE070E080E055
:1059100090E04BD161E08C8D81D26EEACE011FDF29
:1059200065EDCE011CDF60E8CE0119DF68EACE012B
:1059300016DF6FE3CE0113DF63EDCE0110DF60E011
:10594000CE010DDF60E4CE010ADF6DE8CE0107DF96
:10595000113011F460E101C064E1CE0100DF60E2CA
:10596000CE01FDDE60E0CE01FADE61EACE01F7DEB7
:1059700068ECCE01F4DE6AEDCE01F1DE62E1CE012B
:10598000EEDE61E8CE01EBDE113011F46FE901C00B
:105990006FECCE01E4DE69EDCE01E1DE113011F4F1
:1059A00062E201C061EFCE01DADE6BEDCE01D7DE3F
:1059B00060E4CE01D4DE64EACE01D1DE66EACE0137
:1059C000CEDE6FEACE01DF91CF911F910F91C7CE4E
:1059D000DF92EF92FF920F931F93CF93DF93EC012F
:1059E00061E2BDDE60E0CE01BADE6FE7CE01B7DE78
:1059F00062E2CE01B4DE60E0CE01B1DE67E0CE014E
:105A0000AEDE898D8F3F29F1EBA1FCA1808199A5A4
:105A1000892B8083EDA1FEA180819AA5892B8083AB
:105A2000EBA1FCA1908189A580958923808308E161
:105A300012E0F80161918F01CE0164DEF6E00831D9
:105A40001F07B9F7EBA1FCA1808199A5892B808361
:105A500037C0D090B8008CE08093B80008E112E025
:105A60006F89772767FD70958DE69DE00E946B2317
:105A7000E0916D0DF0916E0D0190F081E02D60E4EC
:105A80008DE69DE01995E12CF12CF801EE0DFF1D3E
:105A900060818DE69DE00E941A238FEFE81AF80AD4
:105AA000E0E1EE16F10489F78DE69DE00E947E2389
:105AB000005F1F4FF6E008311F0791F6D092B80043
:105AC000DF91CF911F910F91FF90EF90DF9008959C
:105AD0001F920F920FB60F9211242F933F938F9323
